:100000000C9434000C9449000C9449000C94490061
:100010000C9449000C9449000C9449000C9449003C
:100020000C9449000C9449000C9449000C9449002C
:100030000C9449000C9449000C9449000C9449001C
:100040000C9449000C9449000C9449000C9449000C
:100050000C9449000C9449000C9449000C944900FC
:100060000C9449000C94490011241FBECFEFD8E036
:10007000DEBFCDBF11E0A0E0B1E0E0E2F2E002C0FF
:1000800005900D92A231B107D9F70E94DF000C94C0
:100090000E010C9400000F931F93CF93DF93EC019C
:1000A0008B016817790780F485E40E94D10082E50E
:1000B0000E94D10082E50E94D1008AE0DF91CF91B9
:1000C0001F910F910C94D10080E30E94D10088E72A
:1000D0000E94D100FE01EF2FFF27E295EF70E05064
:1000E000FF4F80810E94D100ED2FFF27EF70FF2787
:1000F000E050FF4F80810E94D100FE0124E0F69580
:10010000E7952A95E1F7EF70FF27E050FF4F8081D8
:100110000E94D100FE01EF70FF27E050FF4F808169
:100120000E94D1008AE30E94D10080E20E94D100A7
:10013000E881E295EF70F0E0E050FF4F80810E948F
:10014000D100E991EF70F0E0E050FF4F80810E9414
:10015000D1008AE00E94D1000C171D0708F0B4CF2F
:10016000DF91CF911F910F9108959B01AC0184E025
:10017000220F331F441F551F8A95D1F760E074E2A8
:1001800084EF90E00E94EC00215031093093C500CB
:100190002093C40088E18093C10086E08093C20070
:1001A00008959091C00095FFFCCF8093C6000895FC
:1001B0008091C00087FFFCCF8091C600089560E861
:1001C00075E280E090E00E94B50060E071E080E0C0
:1001D00090E00E944B00FFCFA1E21A2EAA1BBB1B8E
:1001E000FD010DC0AA1FBB1FEE1FFF1FA217B30703
:1001F000E407F50720F0A21BB30BE40BF50B661F19
:10020000771F881F991F1A9469F7609570958095DC
:1002100090959B01AC01BD01CF010895F894FFCFEB
:10022000303132333435363738394142434445462C
:020230000000CC
:00000001FF
